:100000000C9434000C9449000C9449000C94490061
:100010000C9449000C9449000C9449000C9449003C
:100020000C9449000C9449000C9449000C9449002C
:100030000C9449000C9449000C9449000C9449001C
:100040000C9449000C9449000C9449000C9449000C
:100050000C9449000C9449000C9449000C944900FC
:100060000C9449000C94490011241FBECFEFD8E036
:10007000DEBFCDBF11E0A0E0B1E0E4E4F1E002C0FA
:1000800005900D92A038B107D9F70E944B000C944F
:10009000A0000C940000CF93DF93CDB7DEB7C0581B
:1000A000D1090FB6F894DEBF0FBECDBF8FEF84B974
:1000B0008AB988E0E0E0F1E0DE01119601900D924E
:1000C0008A95E1F788E7E8E0F1E0DE011996019012
:1000D0000D928A95E1F7A0E0B0E040E050E02CC03E
:1000E000E1E0F0E0EC0FFD1FE80FF91F20812BB9D4
:1000F000FA01E80FF91F29E030E02C0F3D1FE20F55
:10010000F31F2081209525B9E9EFF0E03197F1F751
:1001100000C00000019602C080E090E088309105A8
:10012000FCF26F5F7F4F02C060E070E062337105E8
:100130009CF3485F5F4F1196AF30B105ACF3CBCF66
:04014000F894FFCF61
:10014400010204081020408000004E4A7A7E00001C
:1001540000007E5A5A7E0000000006067E7E0000E3
:1001640000007E4E7A7A000000004E4E7A7A00003B
:100174000000181C727E000000005A5A7E7E0000A7
:1001840000007A7A5E5E0000000004047E7E0000B7
:10019400003C7E42427E3C00AA55AA55AA55AA5567
:1001A40055AA55AA55AA55AAAA55AA55AA55AA5553
:1001B40055AA55AA55AA55AA00000000000000003F
:00000001FF
